:1000000003308A00BC2B00000A108A100A118207F4
:1000100028340C34013406343B3084008313000848
:10002000031920280130F800F701F70B1528F80B09
:1000300014284A30F700F70B1B281E28800B1228C3
:1000400008004218252806122628061683160612CE
:100050008312C2182D2886122E2886168316861221
:1000600083124219352806133628061783160613FD
:100070008312C2193D2886133E28861783168613DD
:1000800000000611831206154528831606118312F7
:1000900006110800C301831606118312061500001D
:1000A0008316061683124310061A43148316861607
:1000B0008312C310861AC3148316061783124311C2
:1000C000061B4315831686178312C311861BC3159F
:1000D000831606118312061100004308F800080079
:1000E0008316061083120610831686108312861458
:1000F00000004A207808C2004A207808C100420E59
:10010000F700F030F70577084104F8007808C100DF
:10011000C11B7428BF080319922883160610831286
:100120000614962883160610831206100000831604
:1001300086108312861000008316061183120611A2
:10014000400EC1000F30C1054108C2002120400807
:100150000F39C100C200212008000130A000831621
:1001600006108312061083168610831286108316DB
:100170000611831206112330BB000C20AD012D089F
:10018000023C031CCB280330C20021200530BB00F9
:100190000C20AD0ABF280230C2002120AD012D087D
:1001A000033C031CDC282D080420AE00BF012E08F0
:1001B000C0007020AD0ACF288A110A12D42B8E30CD
:1001C000F7002E08F8002D08F900FA01F808031DC1
:1001D000F3287908F800F9010830F702F808031D40
:1001E000F328F701FB280310F81BFA28F90DF80D86
:1001F000F703F328F8138A110A12E52B2D080319C7
:10020000C329B90031080319C329B902031C0D29F8
:100210007F30B9070318C32913298130B902031CA1
:10022000C3290319C3293908F700F801F901FA01B4
:10023000B8012E08B700B7172F08B6003008B50070
:100240001930B9003408B502031836290130B60256
:1002500003183629B70203183629B80203183629BD
:10026000B80AB70AB60A3408B50768293308B602CF
:10027000031851290130B70203185129B802031895
:100280005129B80AB70A3308B6073408B507031C62
:100290006829B60A031D6829B70A031D6829B80A28
:1002A000682932088038B702031867290130B8027C
:1002B00003186729B80A32088038B7073308B60729
:1002C000031C4529B70A031D4529B80A45297A1494
:1002D000B90B6B2976290310B50DB60DB70DB80D06
:1002E0000310FA0DF90DF80DBA0D22293A1C7E29DA
:1002F0000310F80CF90CFA0CBA0C8129F703031956
:10030000C329BA1BAA290310B50DB60DB70DB80D38
:100310003408B502031896290130B602031896294D
:10032000B70203189629B802031CB9293308B6028C
:100330000318A1290130B7020318A129B802031C30
:10034000B92932088038B7020318AA290130B80247
:10035000031CB929FA0A031DB929F90A031DB92991
:10036000F80A031DB929F70A0319C329F80CF90C77
:10037000FA0C2E08B9003208B906B91FC129F817BE
:10038000C729F813C729F701F801F901FA018A1101
:100390000A12FC2B3A0803193A2AC2003E08031934
:1003A0003A2AC2070318DB297F30C202031C3A2A0B
:1003B00003193A2ADF298130C20703183A2A420872
:1003C000F700F801F901FA013B08C600C6173C081E
:1003D000C5003D08C4001830C200C301441C082AEF
:1003E0004108FA07031CFA29F90A031DFA29F80A39
:1003F0000319C3174008F907031C012AF80A031957
:10040000C3173F08BC00BC173C08F8070318C31704
:10041000C30DF80CF90CFA0CC60CC50CC40C031077
:10042000C20BED290130F70703183A2AF81B1F2ADF
:10043000C60DFA0DF90DF80DF70303193A2AC61F78
:10044000302AFA0A031D302AF90A031D302AF80A55
:10045000031D302AF80CF90CFA0CF70A03193A2A92
:100460003B08C3003F08C306C31F382AF8173E2ABB
:10047000F8133E2AF701F801F901FA0108003C08D7
:10048000013A03194D2A033A03194F2A013A031975
:10049000522A073A0319552A582ABD01592A4030D1
:1004A000BD00592A1430BD00592A5430BD00592AC4
:1004B000BD0101303B02BD073D088038BE00BF01D1
:1004C0003E08C000702008008318692A423084006A
:1004D0008313F701F801F901FA01C201C301C40154
:1004E000C501410840043F043E040319A72A2030F7
:1004F000C6000310BA0DBB0DBC0DBD0DC20DC30D62
:10050000C40DC50D41084502031D902A4008440250
:10051000031D902A3F084302031D902A3E08420211
:10052000031CA12A3E08C2023F08031C3F0FC3025E
:100530004008031C400FC4024108031C410FC502C0
:100540000314F70DF80DF90DFA0DC60B792A4208C0
:100550008000840A43088000840A44088000840ADA
:100560004508800008003A080C3A0319BE2A063AEA
:100570000319C82A023A0319CF2AD42ABF0101302D
:10058000C00070200130A0000230BB000C20D92A2E
:10059000A00A0130BB002008BC003F22D92ABF01BD
:1005A0001030C0007020D92A0130BF003A08C000C6
:1005B000702008000408B2003108B4000319F92AB9
:1005C0003008BD002F08BC002E08BB002D08BA0063
:1005D000C101C0012030BF008230BE00CA217A08AC
:1005E000B0007908AF007808AE007708AD00B40B12
:1005F000E02A3008BD002F08BC002E08BB002D08E3
:10060000BA003A08B63CBA00FA013B08BE00BB1774
:100610000310BB0CBC0CBD0CFA0CF90CF80CF70C5D
:10062000BA0B082BBE1F1F2BF709F809F909FA09A5
:10063000F70A0319F80A0319F90A0319FA0A7A08DA
:10064000B0007908AF007808AE007708AD00B01FA1
:10065000362BB203B216AD09AE09AF09B009AD0A27
:100660000319AE0A0319AF0A0319B00A3B30B900E7
:100670009A30B800CA30B700B6010A30B400310869
:100680000319B20A83142D30840083133008BD008F
:100690002F08BC002E08BB002D08BA003908C10085
:1006A0003808C0003708BF003608BE00642278084A
:1006B000F708031D6E2B310A340203196E2B320822
:1006C0000319702B0F3934020319682B0318A02B60
:1006D000B21BA02B321B702B20309C2B2030B2057C
:1006E000B21E7E2BB2123108031DB2037708B2008E
:1006F0002D30BA00B3223208F700B20131083402BB
:10070000031D8C2B7708B2002E30BA00B3223208BA
:10071000F7002030B20500303030B21E9C2BB212F0
:100720003108031DB2037708B2002D30BA00B3229E
:100730003208F700B2013030F7077708BA00B32269
:1007400083103908BD003808BC003708BB003608E4
:10075000BA00C101C001BF010A30BE0064227A089C
:10076000B9007908B8007808B7007708B600B40B6C
:10077000422B8A110A122C2C03081F39830083167E
:100780001F149F141F159F1107309C0083131F1403
:100790009F101F159F111F1383121F139F13831682
:1007A0009F1383121F14AD280030F8001F08C739AB
:1007B00078049F000330F700F70BDC2B1F151F197F
:1007C000DF2B1E08AE01AD00DF287A08A4007908EF
:1007D000A3007808A2007708A1002408B00023082D
:1007E000AF002208AE002108AD00B401B3017F3094
:1007F000B2008630B100FE287A08A8007908A70068
:100800007808A6007708A5002808BD002708BC00C6
:100810002608BB002508BA00C101C0012030BF0076
:100820008130BE00CA217A08AC007908AB00780894
:10083000AA007708A9000130BB00BC003F22893024
:1008400084002C08B0002B08AF002A08AE0029084D
:10085000AD000230B100DA2A6430BB000C20D42B8A
:02086000630033
:02400E00412F40
:00000001FF
;PIC16F877A
;CRC=8CD2  CREATED="22-ге-16 13:45"
