:1000000002308A00EA2A00000A108A100A118207C8
:1000100028340C340134063434308400831300084F
:10002000031920280130F800F701F70B1528F80B09
:1000300014284A30F700F70B1B281E28800B1228C3
:1000400008003B18252806122628061683160612D5
:100050008312BB182D2886122E2886168316861228
:1000600083123B1935280613362806178316061304
:100070008312BB193D2886133E28861783168613E4
:1000800000000611831206154528831606118312F7
:1000900006110800BC018316061183120615000024
:1000A0008316061683123C10061A3C148316861615
:1000B0008312BC10861ABC148316061783123C11D7
:1000C000061B3C15831686178312BC11861BBC15B4
:1000D000831606118312061100003C08F800080080
:1000E0008316061083120610831686108312861458
:1000F00000004A207808BB004A207808BA003B0E6E
:10010000F700F030F70577083A04F8007808BA00ED
:10011000BA1B7428B8080319922883160610831294
:100120000614962883160610831206100000831604
:1001300086108312861000008316061183120611A2
:10014000390EBA000F30BA053A08BB002120390831
:100150000F39BA00BB00212008000130A00083162F
:1001600006108312061083168610831286108316DB
:100170000611831206112330B4000C20A6012608B4
:10018000023C031CCB280330BB0021200530B40007
:100190000C20A60ABF280230BB002120A601260899
:1001A000033C031CDC2826080420A700B80127080C
:1001B000B9007020A60ACF288A110A120A2B8E30A5
:1001C000F7002708F8002608F900FA01F808031DCF
:1001D000F3287908F800F9010830F702F808031D40
:1001E000F328F701FB280310F81BFA28F90DF80D86
:1001F000F703F328F81308003508013A03190A2910
:10020000033A03190C29013A03190F29073A031974
:1002100012291529B60116294030B60016291430C6
:10022000B60016295430B6001629B6010130340242
:10023000B60736088038B700B8013708B900702013
:10024000080033080C3A03192C29063A03193629F9
:10025000023A03193D294229B8010130B900702042
:100260000130A0000230B4000C204729A00A013060
:10027000B4002008B500FC204729B8011030B900AF
:10028000702047290130B8003308B90070200800F9
:1002900083184D293B3084008313F701F801F901DD
:1002A000FA01BB01BC01BD01BE013A0839043804A2
:1002B000370403198B292030BF000310B30DB40D90
:1002C000B50DB60DBB0DBC0DBD0DBE0D3A083E0201
:1002D000031D742939083D02031D742938083C02A6
:1002E000031D742937083B02031C85293708BB020C
:1002F0003808031C380FBC023908031C390FBD0233
:100300003A08031C3A0FBE020314F70DF80DF90D5D
:10031000FA0DBF0B5D293B088000840A3C08800071
:10032000840A3D088000840A3E0880000800040812
:10033000AB002A08AD000319292A2908B6002808AD
:10034000B5002708B4002608B300BA01B90120306F
:10035000B8008230B700330803191B2ABB003708E6
:1003600003191B2ABB070318BC297F30BB02031CDF
:100370001B2A03191B2AC0298130BB0703181B2A1B
:100380003B08F700F801F901FA013408BF00BF1774
:100390003508BE003608BD001830BB00BC013D1C4E
:1003A000E9293A08FA07031CDB29F90A031DDB29AE
:1003B000F80A0319BC173908F907031CE229F80ADF
:1003C0000319BC173808B500B5173508F807031826
:1003D000BC17BC0DF80CF90CFA0CBF0CBE0CBD0C14
:1003E0000310BB0BCE290130F70703181B2AF81B9B
:1003F000002ABF0DFA0DF90DF80DF70303191B2A9A
:10040000BF1F112AFA0A031D112AF90A031D112A16
:10041000F80A031D112AF80CF90CFA0CF70A031953
:100420001B2A3408BC003808BC06BC1F192AF81760
:100430001F2AF8131F2AF701F801F901FA017A08B7
:10044000A9007908A8007808A7007708A600AD0BD6
:100450009D292908B6002808B5002708B4002608F9
:10046000B3003308B63CB300FA013408B700B41740
:100470000310B40CB50CB60CFA0CF90CF80CF70C14
:10048000B30B382AB71F4F2AF709F809F909FA09F7
:10049000F70A0319F80A0319F90A0319FA0A7A087C
:1004A000A9007908A8007808A7007708A600A91F66
:1004B000662AAB03AB16A609A709A809A909A60ACB
:1004C0000319A70A0319A80A0319A90A3B30B200A5
:1004D0009A30B100CA30B000AF010A30AD002A082E
:1004E0000319AB0A83142630840083132908B6004D
:1004F0002808B5002708B4002608B3003208BA005F
:100500003108B9003008B8002F08B7004821780832
:10051000F708031D9E2A2A0A2D0203199E2A2B087A
:100520000319A02A0F392D020319982A0318D02A7B
:10053000AB1BD02A2B1BA02A2030CC2A2030AB05A5
:10054000AB1EAE2AAB122A08031DAB037708AB0023
:100550002D30B30021212B08F700AB012A082D0212
:10056000031DBC2A7708AB002E30B30021212B08D5
:10057000F7002030AB0500303030AB1ECC2AAB1278
:100580002A08031DAB037708AB002D30B3002121EF
:100590002B08F700AB013030F7077708B3002121B3
:1005A00083103208B6003108B5003008B4002F08B7
:1005B000B300BA01B901B8010A30B70048217A087E
:1005C000B2007908B1007808B0007708AF00AD0B31
:1005D000722A080003081F39830019308316990016
:1005E000A630980090308312980083161F149F1431
:1005F0001F159F1107309C0083131F149F101F1598
:100600009F111F1383121F139F1383169F178312AB
:100610001F14AD288C1E0A2B1A08A5002508613C62
:10062000031D402B0030F8001F08C73978049F00D5
:100630001F151F19192B1E08FA0083161E08831296
:10064000A6001E08A700DF207A08A4007908A300EE
:100650007808A2007708A1002030B300212189305A
:1006600084002408A9002308A8002208A700210864
:10067000A6000230AA0097212030B3002121712B5F
:100680002508623C031D712B0830F8001F08C7398C
:1006900078049F001F151F194B2B1E08FA008316A4
:1006A0001E088312A6001E08A700DF207A08A400F7
:1006B0007908A3007808A2007708A1002030B300D1
:1006C0002121893084002408A9002308A8002208D9
:1006D000A7002108A6000230AA0097212030B3000D
:0E06E00021210130B400B500FC200A2B63007C
:02400E00412F40
:00000001FF
;PIC16F877A
;CRC=C713  CREATED="22-ге-16 15:02"
