:1000000003308A001F2B0000FF00030E8301A100B4
:100010000A08A0008A010408A2007708A300780853
:10002000A4007908A5007A08A600831383128C30F7
:100030008400801E1D288C1A2E2822088400230884
:10004000F7002408F8002508F9002608FA0020081F
:100050008A00210E8300FF0E7F0E09008A110A120A
:1000600039280A108A100A11820728340C34013406
:1000700006348C1E39281A08AC008C128A110A1218
:100080001D283B30840083130008031955280130D4
:10009000F800F701F70B4A28F80B49284A30F70017
:1000A000F70B50285328800B4728080042185A287D
:1000B00006125B280616831606128312C2186228DF
:1000C00086126328861683168612831242196A28BE
:1000D00006136B280617831606138312C21972289B
:1000E0008613732886178316861300000611831261
:1000F00006157A2883160611831206110800C3011B
:100100008316061183120615000083160616831245
:100110004310061A4314831686168312C310861AD8
:10012000C3148316061783124311061B4315831647
:1001300086178312C311861BC315831606118312FB
:10014000061100004308F800080083160610831209
:100150000610831686108312861400007F2078080C
:10016000C2007F207808C100420EF700F030F7058A
:1001700077084104F8007808C100C11BA928BF080E
:100180000319C7288316061083120614CB2883167A
:100190000610831206100000831686108312861044
:1001A00000008316061183120611400EC1000F30A5
:1001B000C1054108C200562040080F39C100C200E5
:1001C000562008000130A70083160610831206107F
:1001D0008316861083128610831606118312061169
:1001E0002330BB004120AD012D08023C031C002937
:1001F0000330C20056200530BB004120AD0AF42870
:100200000230C2005620AD012D08033C031C112909
:100210002D083120AE00BF012E08C000A520AD0A78
:1002200004298A110A12442B8E30F7002E08F80098
:100230002D08F900FA01F808031D28297908F800AB
:10024000F9010830F702F808031D2829F7013029C1
:100250000310F81B2F29F90DF80DF7032829F813BF
:1002600008003C08013A03193F29033A03194129C0
:10027000013A03194429073A031947294A29BD01BC
:100280004B294030BD004B291430BD004B29543060
:10029000BD004B29BD0101303B02BD073D08803840
:1002A000BE00BF013E08C000A52008003A080C3A75
:1002B00003196129063A03196B29023A03197229B5
:1002C0007729BF010130C000A5200130A70002300E
:1002D000BB0041207C29A70A0130BB002708BC00D5
:1002E00031217C29BF011030C000A5207C290130BC
:1002F000BF003A08C000A5200800831882294230B8
:1003000084008313F701F801F901FA01C201C30166
:10031000C401C501410840043F043E040319C0293B
:100320002030C6000310BA0DBB0DBC0DBD0DC20DB3
:10033000C30DC40DC50D41084502031DA929400880
:100340004402031DA9293F084302031DA9293E08B1
:100350004202031CBA293E08C2023F08031C3F0F99
:10036000C3024008031C400FC4024108031C410F94
:10037000C5020314F70DF80DF90DFA0DC60B9229FD
:1003800042088000840A43088000840A44088000F0
:10039000840A4508800008000408B2003108B4004F
:1003A00003195E2A3008BD002F08BC002E08BB00D0
:1003B0002D08BA00C101C0012030BF008230BE004C
:1003C0003A080319502AC2003E080319502AC207EE
:1003D0000318F1297F30C202031C502A0319502A46
:1003E000F5298130C2070318502A4208F700F801A6
:1003F000F901FA013B08C600C6173C08C5003D08D4
:10040000C4001830C200C301441C1E2A4108FA0768
:10041000031C102AF90A031D102AF80A0319C3172E
:100420004008F907031C172AF80A0319C3173F08E5
:10043000BC00BC173C08F8070318C317C30DF80C21
:10044000F90CFA0CC60CC50CC40C0310C20B032A21
:100450000130F7070318502AF81B352AC60DFA0D8C
:10046000F90DF80DF7030319502AC61F462AFA0A98
:10047000031D462AF90A031D462AF80A031D462AC7
:10048000F80CF90CFA0CF70A0319502A3B08C300C0
:100490003F08C306C31F4E2AF817542AF813542ADC
:1004A000F701F801F901FA017A08B0007908AF0004
:1004B0007808AE007708AD00B40BD2293008BD0033
:1004C0002F08BC002E08BB002D08BA003A08B63C25
:1004D000BA00FA013B08BE00BB170310BB0CBC0CF2
:1004E000BD0CFA0CF90CF80CF70CBA0B6D2ABE1FF8
:1004F000842AF709F809F909FA09F70A0319F80A29
:100500000319F90A0319FA0A7A08B0007908AF004A
:100510007808AE007708AD00B01F9B2AB203B21670
:10052000AD09AE09AF09B009AD0A0319AE0A031946
:10053000AF0A0319B00A3B30B9009A30B800CA308C
:10054000B700B6010A30B40031080319B20A8314A7
:100550002D30840083133008BD002F08BC002E0806
:10056000BB002D08BA003908C1003808C0003708A0
:10057000BF003608BE007D217808F708031DD32A86
:10058000310A34020319D32A32080319D52A0F3944
:1005900034020319CD2A0318052BB21B052B321B7D
:1005A000D52A2030012B2030B205B21EE32AB21228
:1005B0003108031DB2037708B2002D30BA0056216E
:1005C0003208F700B20131083402031DF12A77081E
:1005D000B2002E30BA0056213208F7002030B205A2
:1005E00000303030B21E012BB2123108031DB203AD
:1005F0007708B2002D30BA0056213208F700B20158
:100600003030F7077708BA00562183103908BD004B
:100610003808BC003708BB003608BA00C101C00169
:10062000BF010A30BE007D217A08B9007908B80000
:100630007808B7007708B600B40BA72A08000308AB
:100640001F398300193083169900A6309800903026
:100650008312980083161F149F141F159F110730D3
:100660009C0083131F149F101F159F111F138312CB
:100670001F139F1383169F1783121F1483168C1644
:10068000C03083128B04E2282C08613C031D762BBA
:100690000030F8001F08C73978049F001F151F1984
:1006A0004F2B1E08FA0083161E088312AD001E0889
:1006B000AE0014217A08AB007908AA007808A900D6
:1006C0007708A8002030BA005621893084002B0812
:1006D000B0002A08AF002908AE002808AD0002309B
:1006E000B100CC212030BA005621A72B2C08623C47
:1006F000031DA72B0830F8001F08C73978049F0096
:100700001F151F19812B1E08FA0083161E0883125D
:10071000AD001E08AE0014217A08AB007908AA00CB
:100720007808A9007708A8002030BA00562189303F
:1007300084002B08B0002A08AF002908AE00280862
:10074000AD000230B100CC212030BA00562101307A
:10075000BB00BC0031213230BB004120442B630080
:02400E00452F3C
:00000001FF
;PIC16F877A
;CRC=9044  CREATED="22-ге-16 15:04"
