:1000000000308A0019280000223084008313000881
:10001000031918280130F800F701F70B0D28F80B29
:100020000C284A30F700F70B13281628800B0A28F3
:10003000080003081F39830083161F149F141F151F
:100040009F1107309C008313003086000610831236
:1000500006140230A1009630A2000420A10B2B2828
:1000600083160610831206108316861083128614D8
:100070000230A1009630A2000420A10B3A2883167A
:1000800086108312861083168501AA30831285009C
:100090000230A1009630A2000420A10B4A2883164A
:0400A00026286300AB
:02400E00412F40
:00000001FF
;PIC16F877A
;CRC=0E80  CREATED="22-ге-16 12:36"
