:1000000001308A00D22900000A108A100A118207E2
:1000100028340C3401340634C8326C366F10A11009
:1000200000002830840083130008031925280130BC
:10003000F800F701F70B1A28F80B19284A30F700D7
:10004000F70B20282328800B172808002F182A28B0
:1000500006122B280616831606128312AF183228B2
:100060008612332886168316861283122F193A2891
:1000700006133B280617831606138312AF1942286E
:1000800086134328861783168613000006118312F1
:1000900006154A2883160611831206110800B001BE
:1000A00083160611831206150000831606168312A6
:1000B0003010061A3014831686168312B010861A72
:1000C000B0148316061783123011061B30158316E1
:1000D00086178312B011861BB01583160611831282
:1000E000061100003008F80008008316061083127D
:1000F0000610831686108312861400004F2078089D
:10010000AF004F207808AE002F0EF700F030F70553
:1001100077082E04F8007808AE00AE1B7928AC08EA
:100120000319972883160610831206149B2883163A
:1001300006108312061000008316861083128610A4
:10014000000083160611831206112D0EAE000F302B
:10015000AE052E08AF0026202D080F39AE00AF00E7
:10016000262008000130A000831606108312061016
:1001700083168610831286108316061183120611C9
:100180002330A8001120A4012408023C031CD0281D
:100190000330AF0026200530A8001120A40AC4288F
:1001A0000230AF002620A4012408033C031CE128F0
:1001B00024080420A500AC012508AD007520A40A80
:1001C000D42808002908013A0319F028033A031932
:1001D000F228013A0319F528073A0319F828FB28F1
:1001E000AA01FC284030AA00FC281430AA00FC28F0
:1001F0005430AA00FC28AA0101302802AA072A08C4
:100200008038AB00AC012B08AD0075200800270832
:100210000C3A03191229063A03191C29023A031948
:1002200023292829AC010130AD0075200130A00040
:100230000230A80011202D29A00A0130A8002008B2
:10024000A900E2202D29AC011030AD0075202D2928
:100250000130AC002708AD00752008000B08A40091
:100260008B13831603178C170C14000000008312E5
:100270000313A41B8B1703170C087F39031982295A
:100280000313A40003170D080313A50003170F0899
:100290000313A6002408A7000721250803178D00D3
:1002A0000313260803178F0003130B08A7008B13F3
:1002B000831603178C170C1400000000831203131D
:1002C000A71B8B1703170C0D0E0D7F3903198229FD
:1002D0000313A40003170D080313A50003170F0849
:1002E0000313A6002408A7000721250803178D0083
:1002F0000313260803178F008D0A03198F0A0313AF
:100300002E29031703138A110A12ED292708F80171
:10031000260203188E292608F7009A29F7010830CB
:10032000A800A60DF70D270877020318F700F80DAF
:10033000A80B9129080078082408A6006430A700BB
:1003400086217708A40078083030031DAE29A51C4B
:10035000B529A519B529251A2030B129A5112512CD
:100360002514F8077808A70007212408A6000A30FA
:10037000A70086217708A40078083030031DC6291D
:10038000A519CA29251CCA29251A2030F80778087A
:10039000A70007213030A4072408A70007218A11ED
:1003A0000A12FA2903081F398300A201A10183164A
:1003B0001F149F141F159F1107309C008313831275
:1003C000B220A3010130A800A900E2200C300317DD
:1003D0008D0000308F0003132E290530A800112056
:1003E0000130A8000230A900E2202308A4001B303D
:1003F000A5009B29A30A230FFF29B220A301E2290C
:02040000630097
:02400E00412F40
:00000001FF
;PIC16F877A
;CRC=0B2A  CREATED="22-ге-16 12:56"
